:100000000C9434000C9446000C9446000C9446006A
:100010000C9446000C9446000C9446000C94460048
:100020000C9446000C9446000C9446000C94460038
:100030000C9446000C9446000C9446000C94460028
:100040000C9448000C9446000C9446000C94460016
:100050000C9446000C9446000C9446000C94460008
:100060000C9446000C94460011241FBECFEFD8E03C
:10007000DEBFCDBF21E0A0E0B1E001C01D92A935F7
:10008000B207E1F70E9492000C94E3000C94000088
:100090001F920F920FB60F9211242F933F938F93BD
:1000A0009F93AF93BF938091550190915601A0917A
:1000B0005701B09158013091540123E0230F2D379F
:1000C00020F40196A11DB11D05C026E8230F02965C
:1000D000A11DB11D209354018093550190935601A9
:1000E000A0935701B0935801809150019091510114
:1000F000A0915201B09153010196A11DB11D8093B1
:10010000500190935101A0935201B0935301BF91BC
:10011000AF919F918F913F912F910F900FBE0F90B4
:100120001F901895789484B5826084BD84B58160F1
:1001300084BD85B5826085BD85B5816085BD8091B2
:100140006E00816080936E0010928100809181002A
:100150008260809381008091810081608093810022
:10016000809180008160809380008091B1008460E4
:100170008093B1008091B00081608093B000809145
:100180007A00846080937A0080917A008260809304
:100190007A0080917A00816080937A0080917A0061
:1001A000806880937A001092C100E0E0F1E0119243
:1001B00084E0E03CF807D9F7C0E0D0E02097F1F305
:0A01C0000E940000FBCFF894FFCF6F
:00000001FF
