:1000000078C00000A4C00000A2C00000A0C0000092
:100010009EC000009CC000009AC0000098C0000074
:1000200096C0000094C0000092C0000090C0000084
:100030008EC000008CC000008AC0000088C0000094
:1000400086C0000084C0000082C0000080C00000A4
:100050007EC000007CC000007AC00000B8C2000072
:1000600076C0000027C30000FCC2000070C0000082
:100070006EC000006CC000006AC0000068C00000D4
:1000800066C0000064C0000062C0000060C00000E4
:100090005EC000005CC000005AC0000058C00000F4
:1000A00056C0000054C0000052C0000050C0000004
:1000B0004EC000004CC000004AC0000048C0000014
:1000C00046C0000044C0000042C0000040C0000024
:1000D0003EC000003CC000003AC0000038C0000034
:1000E00036C0000002000200000001000000010014
:1000F0003F0411241FBECFEFD1E2DEBFCDBF00E031
:100100000CBF12E0A0E0B2E0E6E8FEE000E00BBFCA
:1001100002C007900D92AC33B107D9F72CE0ACE3E5
:10012000B2E001C01D92A03AB207E1F710E0C9E7C2
:10013000D0E000E005C021970109802FFE01CCD35B
:10014000C837D10780E00807B1F7EAD29AC658CF7E
:10015000CF92DF92EF92FF920F931F93CF93DF9393
:100160006C017A018B01C0E0D0E0CE15DF0589F08B
:10017000D8016D918D01D601ED91FC910190F08136
:10018000E02DC6011995892B11F47E0102C021963C
:10019000ECCFC701DF91CF911F910F91FF90EF90AE
:1001A000DF90CF900895FC01918D828D981761F0BA
:1001B000828DDF01A80FB11D5D968C91928D9F5F9E
:1001C0009F73928F90E008958FEF9FEF0895FC0149
:1001D000918D828D981731F0828DE80FF11D858DFC
:1001E00090E008958FEF9FEF0895FC01918D228D8F
:1001F000892F90E0805C9F4F821B91098F73992714
:10020000089583E09CE0F1DF21E0892B09F420E0F0
:10021000822F0895FC01848DDF01A80FB11DA35A20
:10022000BF4F2C91848D90E001968F739927848F16
:10023000A689B7892C93A089B1898C9180648C930D
:10024000938D848D981306C00288F389E02D8081F8
:100250008F7D80830895EF92FF920F931F93CF932A
:10026000DF93EC0181E0888F9B8D8C8D981305C006
:10027000E889F989808185FD23C0F62E0B8D10E079
:100280000F5F1F4F0F731127E02E8C8DE8120BC0EC
:100290000FB607FCFACFE889F989808185FFF5CF91
:1002A000CE01B8DFF2CF8B8DFE01E80FF11DE35ACE
:1002B000FF4FF0820B8FEA89FB898081806207C043
:1002C000EE89FF896083E889F98980818064808371
:1002D00081E090E0DF91CF911F910F91FF90EF901F
:1002E0000895CF93DF93EC01888D8823C1F0EA89CC
:1002F000FB89808185FD05C0A889B9898C9186FD1F
:100300000EC00FB607FCF5CF808185FFF2CFA8891C
:10031000B9898C9185FFEDCFCE017CDFE8CFDF91ED
:10032000CF91089580E090E0892B19F06ADF811168
:1003300025C080E090E0892B41F080E090E0892B9F
:1003400021F00E94000081111CC080E090E0892B08
:1003500041F080E090E0892B21F00E9400008111A3
:1003600013C080E090E0892BA1F080E090E0892B21
:1003700081F00E94000081110AC008950E940000CF
:10038000D8CF0E940000E1CF0E940000EACF0C9479
:1003900000000895CF93DF93009771F0FC01019066
:1003A0000020E9F73197AF01481B590BBC0183E0EE
:1003B0009CE0CEDEEC0102C0C0E0D0E042E050E0C4
:1003C00060E172E083E09CE0C3DE8C0F9D1FDF9153
:1003D000CF9108952F923F924F925F926F927F92AA
:1003E0008F929F92AF92BF92CF92DF92EF92FF9245
:1003F0000F931F93CF93DF93CDB7DEB7C350D34096
:100400000FB6F894DEBF0FBECDBFE4EEF0E025904E
:10041000359045905490510121E0A21AB108E6EEC2
:10042000F0E0C590D590E590F49031E0C31AD10882
:10043000DF92CF92BF92AF9283E192E09F938F932E
:100440008E0101501E4F1F930F9352D2C801A2DF9D
:100450000FB6F894DEBF0FBECDBF1A141B040CF00C
:100460009BC01C141D040CF097C035E4632E32E0D1
:10047000732EC250DD4F39822882CE5FD240812C4C
:10048000912C412C512C7E01F394DE0111961D011B
:1004900000E010E094012E5F3F4FC050DD4F3983E4
:1004A0002883C050D340C050DD4F88819981C0500F
:1004B000D340800F911FFC01EE0FFF1F9F012C51B5
:1004C0003F4FF90145915591659174915F934F9319
:1004D0009F938F93A5E2B2E0BF93AF93FF92EF9209
:1004E000CE5FDC4F2883C250D340CD5FDC4F3883D2
:1004F000C350D340FDD1C7014DDFCE5FDC4F288113
:10050000C250D340CD5FDC4F3881C350D340F90196
:1005100085919591A591B4910FB6F894DEBF0FBE69
:10052000CDBF0C32110504F53BE343165104E4F44E
:1005300021E0019709F020E0F301E00FF11F208393
:100540001F922F935F924F921F930F93A1E3B2E0FC
:10055000BF93AF933F922F92CBD1C1011BDF0FB658
:10056000F894DEBF0FBECDBF0F5F1F4FA016B106C0
:100570000CF099CF9FEF491A590AABE26A0E711C31
:10058000C250DD4F28813981CE5FD240820E931E4A
:10059000C414D5040CF07CCFCD5FDC4F0FB6F894BB
:1005A000DEBF0FBECDBFDF91CF911F910F91FF90A6
:1005B000EF90DF90CF90BF90AF909F908F907F9003
:1005C0006F905F904F903F902F9008958DD11F9224
:1005D0000F920FB60F9211242F933F938F939F93F7
:1005E000AF93BF938091410290914202A091430248
:1005F000B09144023091400223E0230F2D3720F4C4
:100600000196A11DB11D05C026E8230F0296A11D6C
:10061000B11D209340028093410290934202A09327
:100620004302B093440280913C0290913D02A0911C
:100630003E02B0913F020196A11DB11D80933C0284
:1006400090933D02A0933E02B0933F02BF91AF91C1
:100650009F918F913F912F910F900FBE0F901F9000
:1006600018951F920F920FB60F9211240BB60F928E
:100670002F933F934F935F936F937F938F939F93AA
:10068000AF93BF93EF93FF9383E09CE0C3DDFF91B3
:10069000EF91BF91AF919F918F917F916F915F91FA
:1006A0004F913F912F910F900BBE0F900FBE0F9067
:1006B0001F9018951F920F920FB60F9211240BB630
:1006C0000F922F938F939F93EF93FF93E091130CCF
:1006D000F091140C8081E091190CF0911A0C82FDBC
:1006E00012C0908180911C0C8F5F8F7320911D0C24
:1006F000821751F0E0911C0CF0E0ED5FF34F958F05
:1007000080931C0C01C08081FF91EF919F918F918C
:100710002F910F900BBE0F900FBE0F901F9018954A
:10072000789484B5826084BD84B5816084BD85B5CC
:10073000826085BD85B5816085BD80916E008160D8
:1007400080936E001092810080918100826080937E
:100750008100809181008160809381008091800080
:100760008160809380008091B10084608093B100AB
:100770008091B00081608093B00080919100826090
:10078000809391008091910081608093910080918D
:1007900090008160809390008091A100826080939E
:1007A000A1008091A10081608093A1008091A000B0
:1007B00081608093A000809121018260809321015B
:1007C00080912101816080932101809120018160CD
:1007D0008093200180917A00846080937A008091D8
:1007E0007A00826080937A0080917A0081608093A1
:1007F0007A0080917A00806880937A001092C1001C
:10080000E5E4F2E011928CE0E330F807D9F7E091EB
:10081000130CF091140C82E08083E0910F0CF091A6
:10082000100C1082E091110CF091120C8FEC80836F
:1008300010921B0CE091170CF091180C86E080834D
:10084000E091150CF091160C808180618083E0911D
:10085000150CF091160C808188608083E091150C56
:10086000F091160C808180688083E091150CF091E6
:10087000160C80818F7D8083ADDD54DDFECFE3E0FB
:10088000FCE01382128288EE93E0A0E0B0E0848363
:100890009583A683B78384E092E09183808385EC7F
:1008A00090E09587848784EC90E09787868780EC3A
:1008B00090E0918B808B81EC90E0938B828B82EC2B
:1008C00090E0958B848B86EC90E0978B868B118ED5
:1008D000128E138E148E0895EE0FFF1F881F8BBF8C
:1008E0000790F691E02D199481E090E0F894C9C248
:1008F0000F931F93CF93DF93CDB7DEB72E970FB62D
:10090000F894DEBF0FBECDBF0E891F8986E08C83B1
:100910001A8309838FEF9FE79E838D83AE01465E26
:100920005F4F688D798DCE01019611D02F8138856A
:10093000F801E20FF31F10822E960FB6F894DEBF77
:100940000FBECDBFDF91CF911F910F9108952F92D0
:100950003F924F925F926F927F928F929F92AF924F
:10096000BF92CF92DF92EF92FF920F931F93CF939C
:10097000DF93CDB7DEB72C970FB6F894DEBF0FBE6E
:10098000CDBF7C016B018A01FC0117821682838135
:1009900081FFB0C1CE0101964C01F7019381F601B0
:1009A00093FD859193FF81916F01882309F49EC186
:1009B000853239F493FD859193FF81916F018532E2
:1009C00021F4B70190E0C7D1E8CF512C312C20E0C1
:1009D0002032A0F48B3269F030F4803259F0833247
:1009E00069F420612CC08D3239F0803339F42160F4
:1009F00026C02260246023C0286021C027FD27C0B4
:100A000030ED380F3A3078F426FF06C0FAE05F9EEA
:100A1000300D1124532E13C08AE0389E300D11245E
:100A2000332E20620CC08E3221F426FD5FC120647B
:100A300006C08C3611F4206802C0883641F4F601F5
:100A400093FD859193FF81916F018111C1CF982F03
:100A50009F7D9554933028F40C5F1F4FFFE3F9837B
:100A60000DC0833631F0833771F0833509F057C0FC
:100A700021C0F801808189830E5F1F4F4424439475
:100A8000512C540114C03801F2E06F0E711CF801B2
:100A9000A080B18026FF03C0652D70E002C06FEF1B
:100AA0007FEFC5012C874CD12C0183012C852F773A
:100AB000222E16C03801F2E06F0E711CF801A080E2
:100AC000B18026FF03C0652D70E002C06FEF7FEF9D
:100AD000C5012C872AD12C012C852068222E830168
:100AE00023FC19C0832D90E048165906A0F4B701E5
:100AF00080E290E030D13A94F5CFF50127FC859162
:100B000027FE81915F01B70190E025D131103A9421
:100B1000F1E04F1A51084114510479F7DEC08436D0
:100B200011F0893631F5F80127FF07C06081718126
:100B3000828193810C5F1F4F08C060817181072EF5
:100B4000000C880B990B0E5F1F4F2F76722E97FFAC
:100B500009C090958095709561957F4F8F4F9F4FFD
:100B60002068722E2AE030E0A4012DD1A82EA8180A
:100B700043C0853729F42F7EB22E2AE030E025C00D
:100B8000F22FF97FBF2E8F36C1F018F4883579F037
:100B9000ADC0803719F0883721F0A8C02F2F206111
:100BA000B22EB4FE0DC08B2D8460B82E09C024FF78
:100BB0000AC09F2F9660B92E06C028E030E005C01D
:100BC00020E130E002C020E132E0F801B7FE07C0CA
:100BD00060817181828193810C5F1F4F06C06081AB
:100BE000718180E090E00E5F1F4FA401ECD0A82E31
:100BF000A818FB2DFF777F2E76FE0BC0372D3E7F8A
:100C0000A51450F474FE0AC072FC08C0372D3E7E55
:100C100005C0BA2C372D03C0BA2C01C0B52C34FF47
:100C20000DC0FE01EA0DF11D8081803311F4397E83
:100C300009C032FF06C0B394B39404C0832F8678F2
:100C400009F0B39433FD12C030FF06C05A2CB31420
:100C500018F4530C5B18B32CB31460F4B70180E2A2
:100C600090E03C8778D0B3943C85F6CFB31410F471
:100C70003B1801C0312C34FF11C0B70180E390E074
:100C80003C8769D03C8532FF16C031FD03C088E740
:100C900090E002C088E590E0B7010CC0832F867811
:100CA00051F031FF02C08BE201C080E237FD8DE2DE
:100CB000B70190E050D0A51430F4B70180E390E084
:100CC0004AD05A94F8CFAA94F401EA0DF11D80811C
:100CD000B70190E040D0A110F6CF332009F45DCEEB
:100CE000B70180E290E037D03A94F7CFF7018681E0
:100CF000978102C08FEF9FEF2C960FB6F894DEBF5E
:100D00000FBECDBFDF91CF911F910F91FF90EF905C
:100D1000DF90CF90BF90AF909F908F907F906F901B
:100D20005F904F903F902F900895FC010590615087
:100D300070400110D8F7809590958E0F9F1F0895F1
:100D4000FC016150704001900110D8F7809590959A
:100D50008E0F9F1F08950F931F93CF93DF93FB0177
:100D6000238121FD03C08FEF9FEF28C022FF16C013
:100D700046815781248135814217530744F4A0816D
:100D8000B1819D012F5F3F4F318320838C9326815A
:100D900037812F5F3F4F3783268310C0EB01092F28
:100DA000182F0084F185E02D1995892BE1F68E81AD
:100DB0009F8101969F838E83812F902FDF91CF910A
:100DC0001F910F910895FA01AA27283051F120317F
:100DD00081F1E8946F936E7F6E5F7F4F8F4F9F4FCF
:100DE000AF4FB1E03ED0B4E03CD0670F781F891F11
:100DF0009A1FA11D680F791F8A1F911DA11D6A0FDF
:100E0000711D811D911DA11D20D009F468943F9191
:100E10002AE0269F11243019305D3193DEF6CF0190
:100E20000895462F4770405D4193B3E00FD0C9F756
:100E3000F6CF462F4F70405D4A3318F0495D31FDC3
:100E40004052419302D0A9F7EACFB4E0A695979516
:100E5000879577956795BA95C9F7009761057105EC
:100E600008959B01AC010A2E069457954795379536
:100E70002795BA95C9F7620F731F841F951FA01D90
:060E80000895F894FFCF75
:100E8600000000002B01A800F500D300E700710167
:100E96000D0A00785F6C656E3A25642C795F6C6587
:100EA6006E3A2564006461745B25645D3A202564AE
:0C0EB600002825642C2564292564000018
:00000001FF
